S010000069674D65676133322E7372656365
S113000033C000004CC000004AC0000048C00000DB
S113001046C0000044C0000042C0000040C00000D0
S11300203EC000003CC000003AC0000038C00000E0
S113003036C0000034C0000032C0000030C00000F0
S11300402EC000002CC0000091C0000071C0000050
S113005026C0000024C0000022C0000020C0000010
S11300601EC000001CC0000011241FBECFEFD8E04A
S1130070DEBFCDBF11E0A0E0B1E0E6EAF1E002C0EE
S113008005900D92A631B107D9F721E0A6E1B1E0C0
S113009001C01D92AA35B207E1F702D082C0B0CFE9
S11300A0259A80E284B9C0E011E0D0E08091390162
S11300B090913701891B8F71C9F3CC2319F02D9AC4
S11300C0CD2F02C02D98C12F80E091E022D02FEFD8
S11300D087EA91E6215080409040E1F700C000009B
S11300E0E5CF909138019F5F9F712091360192175F
S11300F0E1F3E92FF0E0E65CFE4F80832FB7F8943C
S113010090933801E1ECF0E08081806280832FBF1E
S11301100895CF93DF93EC012196FC01808188231D
S113012021F0DFDF89918111FCCFDF91CF91089518
S11301300F930FB7EF93FF93E0913601F0913801DD
S1130140E395EF71EF1305C0F091C100FF7DF093CB
S1130150C100E0933601F0E0E65CFE4FE081E093FD
S1130160C600FF91EF910FBF0F9118950F930FB732
S11301709F939091C600EF93FF93E0913901F09122
S11301803701E395EF71FE1731F0E0933901F0E0A8
S1130190EA5EFE4F9083FF91EF919F910FBF0F9105
S10901A01895F894FFCF4E
S11301A668656C6C6F2066726F6D2075736172740E
S10901B620300D0A0000D8
S9030000FC
