S010000069674D65676133322E7372656365
S11300000C9434000C94AB010C9451000C945100EA
S11300100C9451000C9451000C9451000C94510018
S11300200C9451000C9451000C9451000C94510008
S11300300C9451000C948C010C9451000C945100BC
S11300400C9451000C9451000C942C030C940E034A
S11300500C9451000C9451000C9451000C945100D8
S11300600C9451000C94510011241FBECFEFD8E022
S1130070DEBFCDBF11E0A0E0B1E0E6E0F7E002C0F2
S113008005900D92AE30B107D9F721E0AEE0B1E0B2
S113009001C01D92A93AB207E1F70E94AB020C9489
S11300A081030C940000CF93DF931F92CDB7DEB78A
S11300B0FC01CB01198241E050E0BE016F5F7F4F2C
S11300C0099589810F90DF91CF910895CF92DF92A6
S11300D0EF92FF920F931F93CF93DF938C01D12C58
S11300E0F801208530E046815781249FC001259F77
S11300F0900D349F900D112444815581840F951FD8
S1130100CD2DD0E0BC016C0F7D1FAE0141505109D3
S113011018F4A901415051097C01E40EF11CF801C5
S1130120828193810E945300C82EB701F801828115
S113013093810E9453008F5F8C110BC02196F801AC
S1130140808590E0C817D90714F0C0E0D0E0DC2E19
S1130150C7CF8D2DDF91CF911F910F91FF90EF901D
S1130160DF90CF900895EF92FF920F931F93FC01BD
S11301700115110599F0E114F10481F02F3F3105C7
S113018009F060F411830083F382E282758364834F
S113019057834683208780E090E002C08FEF9FEF73
S11301A01F910F91FF90EF900895CF92DF92EF92FD
S11301B0FF920F931F93CF93DF931F92CDB7DEB7B8
S11301C0009709F460C06115710509F45CC06B0106
S11301D08C010E946600E82EF12CD80116964D91F0
S11301E05C911797E49EC001E59E900DF49E900DDE
S11301F0112414962D913C911597ED91FC91B60123
S1130200820F931F0995C701019720F4F801808597
S113021090E00197D80118969C91189716962D9105
S11302203C911797929FB001939F700D1124680F12
S1130230711D14968D919C911597680F791F1296D4
S11302408D919C9113970E945300F80190854681EB
S11302505781949F9001959F300D1124E20EF31E57
S1130260248135810190F081E02D8F5F898341E005
S113027050E0BE016F5F7F4FC9018E0D9F1D099530
S113028080E090E002C08FEF9FEF0F90DF91CF915D
S11302901F910F91FF90EF90DF90CF9008950F93EF
S11302A01F93CF93DF93009731F16115710519F115
S11302B0EB018C010E946600282F30E021503109A7
S11302C030F4D80118962C9130E021503109F8010E
S11302D046815781249FC001259F900D11242481BC
S11302E035810280F381E02DBE01820F931F0995B1
S11302F080E090E002C08FEF9FEFDF91CF911F91DC
S11303000F9108959C01CB01B9010C9447039C0102
S1130310CB01B9010C945F031F920F920FB60F9299
S113032011242F938F939F93809110019091110129
S1130330019649F0809110019091110101969093DA
S11303401101809310019F918F912F910F900FBEF7
S11303500F901F9018951F920F920FB60F921124B1
S11303608F939F93EF93FF93E4E8F0E08081918172
S113037090930F0180930E011182108280911001DD
S11303809091110190930F0180930E01109211012D
S113039010921001FF91EF919F918F910F900FBEDA
S11303A00F901F901895EF92FF920F931F93F8945C
S11303B082E8E82E81E0F82E07E811E024E630E038
S11303C044E050E060E070E080E291E00E94B3001D
S11303D083EB92E00E945703813009F451C01092DC
S11303E0120183E08093130182E080931401109240
S11303F0150184EF91E090931701809316018AEE22
S1130400809318018CE49FEF90931A018093190153
S113041081E080931B014AE050E068EA72E082E1E7
S113042091E00E945F03E9E2F1E02AEE8CE49FEFA1
S113043013821282218395838483369631E0E536D4
S1130440F307B1F74CE350E06CE672E089E291E027
S11304500E945F034CE350E060E372E089E291E0C4
S11304600E945F034CE350E064EF71E089E291E0A5
S11304700E945F0361E083EB92E00E946F031CC063
S11304804AE050E068EA72E082E191E00E944703AA
S113049080911B014CE350E0823019F460E372E078
S11304A007C0833019F464EF71E002C06CE672E0B7
S11304B089E291E00E94470382EB92E00E94570395
S11304C08130A1F010921C0110921D0110921E01A6
S11304D010921F016CE171E080E291E00E94D5006E
S11304E061E082EB92E00E946F0319C06CE171E05D
S11304F080E291E00E944F0180911C0190911D01C6
S1130500A0911E01B0911F010596A11DB11D8093FC
S11305101C0190931D01A0931E01B0931F015298DA
S11305205A9A259A8091690082608093690080912B
S11305306900816080936900E89A80E18093C40037
S11305401092C50088E98093C10078941F910F919F
S1130550FF90EF900895CF93DF93CDB7DEB76997FF
S11305600FB6F894DEBF0FBECDBF0E94D301259A0B
S113057010E28091880190918601891B8F71C9F3E3
S113058069E1CE0101960E94050385B1812785B9F1
S113059080E091E00E94EC022FEF81EE94E0215084
S11305A080409040E1F700C00000E3CF90918701C4
S11305B093959F71B0918501B917E1F3A92FB0E02C
S11305C0A757BE4F8C93F894909387019091C100E4
S11305D090629093C1001895FC018191882311F0D9
S11305E0E5DFFBCF089590918601809188019817EB
S11305F051F09F5F9F71A92FB0E0AB59BE4F8C9112
S113060090938601089580E00895FC016A9521F095
S1130610EADF81938111FACF108208950F930FB707
S1130620EF93FF93E0918501F0918701E395EF71DA
S1130630EF1305C0F091C100FF7DF093C100E0937A
S11306408501F0E0E757FE4FE081E093C600FF919B
S1130650EF910FBF0F9118950F930FB79F93909140
S1130660C600EF93FF93E0918801F0918601E39532
S1130670EF71FE1731F0E0938801F0E0EB59FE4F83
S11306809083FF91EF919F910FBF0F911895DC011B
S1130690CB01FC01F999FECF06C0F2BDE1BDF89A89
S11306A0319600B40D9241505040B8F70895F9992D
S11306B0FECF92BD81BDF89A992780B50895DC01DB
S11306C0A40FB51F4150504048F0CB01840F951F33
S11306D02E910E94700341505040D0F70895262F68
S11306E0F999FECF92BD81BDF89A019700B4021624
S11306F039F01FBA20BD0FB6F894FA9AF99A0FBED2
S10907000895F894FFCFF8
S111070668656C6C6F20776F726C640A00007B
S9030000FC
